{
  "_format": "hh-sol-artifact-1",
  "contractName": "MakeNFT",
  "sourceName": "contracts/MakeNFT.sol",
  "abi": [
    {
      "inputs": [],
      "stateMutability": "nonpayable",
      "type": "constructor"
    },
    {
      "anonymous": false,
      "inputs": [
        {
          "indexed": true,
          "internalType": "address",
          "name": "owner",
          "type": "address"
        },
        {
          "indexed": true,
          "internalType": "address",
          "name": "approved",
          "type": "address"
        },
        {
          "indexed": true,
          "internalType": "uint256",
          "name": "tokenId",
          "type": "uint256"
        }
      ],
      "name": "Approval",
      "type": "event"
    },
    {
      "anonymous": false,
      "inputs": [
        {
          "indexed": true,
          "internalType": "address",
          "name": "owner",
          "type": "address"
        },
        {
          "indexed": true,
          "internalType": "address",
          "name": "operator",
          "type": "address"
        },
        {
          "indexed": false,
          "internalType": "bool",
          "name": "approved",
          "type": "bool"
        }
      ],
      "name": "ApprovalForAll",
      "type": "event"
    },
    {
      "anonymous": false,
      "inputs": [
        {
          "indexed": true,
          "internalType": "address",
          "name": "previousOwner",
          "type": "address"
        },
        {
          "indexed": true,
          "internalType": "address",
          "name": "newOwner",
          "type": "address"
        }
      ],
      "name": "OwnershipTransferred",
      "type": "event"
    },
    {
      "anonymous": false,
      "inputs": [
        {
          "indexed": true,
          "internalType": "address",
          "name": "from",
          "type": "address"
        },
        {
          "indexed": true,
          "internalType": "address",
          "name": "to",
          "type": "address"
        },
        {
          "indexed": true,
          "internalType": "uint256",
          "name": "tokenId",
          "type": "uint256"
        }
      ],
      "name": "Transfer",
      "type": "event"
    },
    {
      "inputs": [],
      "name": "MAX_SUPPLY",
      "outputs": [
        {
          "internalType": "uint256",
          "name": "",
          "type": "uint256"
        }
      ],
      "stateMutability": "view",
      "type": "function"
    },
    {
      "inputs": [],
      "name": "MINT_PRICE",
      "outputs": [
        {
          "internalType": "uint256",
          "name": "",
          "type": "uint256"
        }
      ],
      "stateMutability": "view",
      "type": "function"
    },
    {
      "inputs": [
        {
          "internalType": "address",
          "name": "to",
          "type": "address"
        },
        {
          "internalType": "uint256",
          "name": "tokenId",
          "type": "uint256"
        }
      ],
      "name": "approve",
      "outputs": [],
      "stateMutability": "nonpayable",
      "type": "function"
    },
    {
      "inputs": [
        {
          "internalType": "address",
          "name": "owner",
          "type": "address"
        }
      ],
      "name": "balanceOf",
      "outputs": [
        {
          "internalType": "uint256",
          "name": "",
          "type": "uint256"
        }
      ],
      "stateMutability": "view",
      "type": "function"
    },
    {
      "inputs": [
        {
          "internalType": "uint256",
          "name": "tokenId",
          "type": "uint256"
        }
      ],
      "name": "getApproved",
      "outputs": [
        {
          "internalType": "address",
          "name": "",
          "type": "address"
        }
      ],
      "stateMutability": "view",
      "type": "function"
    },
    {
      "inputs": [
        {
          "internalType": "address",
          "name": "owner",
          "type": "address"
        },
        {
          "internalType": "address",
          "name": "operator",
          "type": "address"
        }
      ],
      "name": "isApprovedForAll",
      "outputs": [
        {
          "internalType": "bool",
          "name": "",
          "type": "bool"
        }
      ],
      "stateMutability": "view",
      "type": "function"
    },
    {
      "inputs": [],
      "name": "name",
      "outputs": [
        {
          "internalType": "string",
          "name": "",
          "type": "string"
        }
      ],
      "stateMutability": "view",
      "type": "function"
    },
    {
      "inputs": [],
      "name": "owner",
      "outputs": [
        {
          "internalType": "address",
          "name": "",
          "type": "address"
        }
      ],
      "stateMutability": "view",
      "type": "function"
    },
    {
      "inputs": [
        {
          "internalType": "uint256",
          "name": "tokenId",
          "type": "uint256"
        }
      ],
      "name": "ownerOf",
      "outputs": [
        {
          "internalType": "address",
          "name": "",
          "type": "address"
        }
      ],
      "stateMutability": "view",
      "type": "function"
    },
    {
      "inputs": [],
      "name": "renounceOwnership",
      "outputs": [],
      "stateMutability": "nonpayable",
      "type": "function"
    },
    {
      "inputs": [
        {
          "internalType": "address",
          "name": "to",
          "type": "address"
        },
        {
          "internalType": "string",
          "name": "uri",
          "type": "string"
        }
      ],
      "name": "safeMint",
      "outputs": [],
      "stateMutability": "payable",
      "type": "function"
    },
    {
      "inputs": [
        {
          "internalType": "address",
          "name": "from",
          "type": "address"
        },
        {
          "internalType": "address",
          "name": "to",
          "type": "address"
        },
        {
          "internalType": "uint256",
          "name": "tokenId",
          "type": "uint256"
        }
      ],
      "name": "safeTransferFrom",
      "outputs": [],
      "stateMutability": "nonpayable",
      "type": "function"
    },
    {
      "inputs": [
        {
          "internalType": "address",
          "name": "from",
          "type": "address"
        },
        {
          "internalType": "address",
          "name": "to",
          "type": "address"
        },
        {
          "internalType": "uint256",
          "name": "tokenId",
          "type": "uint256"
        },
        {
          "internalType": "bytes",
          "name": "data",
          "type": "bytes"
        }
      ],
      "name": "safeTransferFrom",
      "outputs": [],
      "stateMutability": "nonpayable",
      "type": "function"
    },
    {
      "inputs": [
        {
          "internalType": "address",
          "name": "operator",
          "type": "address"
        },
        {
          "internalType": "bool",
          "name": "approved",
          "type": "bool"
        }
      ],
      "name": "setApprovalForAll",
      "outputs": [],
      "stateMutability": "nonpayable",
      "type": "function"
    },
    {
      "inputs": [
        {
          "internalType": "bytes4",
          "name": "interfaceId",
          "type": "bytes4"
        }
      ],
      "name": "supportsInterface",
      "outputs": [
        {
          "internalType": "bool",
          "name": "",
          "type": "bool"
        }
      ],
      "stateMutability": "view",
      "type": "function"
    },
    {
      "inputs": [],
      "name": "symbol",
      "outputs": [
        {
          "internalType": "string",
          "name": "",
          "type": "string"
        }
      ],
      "stateMutability": "view",
      "type": "function"
    },
    {
      "inputs": [
        {
          "internalType": "uint256",
          "name": "index",
          "type": "uint256"
        }
      ],
      "name": "tokenByIndex",
      "outputs": [
        {
          "internalType": "uint256",
          "name": "",
          "type": "uint256"
        }
      ],
      "stateMutability": "view",
      "type": "function"
    },
    {
      "inputs": [
        {
          "internalType": "address",
          "name": "owner",
          "type": "address"
        },
        {
          "internalType": "uint256",
          "name": "index",
          "type": "uint256"
        }
      ],
      "name": "tokenOfOwnerByIndex",
      "outputs": [
        {
          "internalType": "uint256",
          "name": "",
          "type": "uint256"
        }
      ],
      "stateMutability": "view",
      "type": "function"
    },
    {
      "inputs": [
        {
          "internalType": "uint256",
          "name": "tokenId",
          "type": "uint256"
        }
      ],
      "name": "tokenURI",
      "outputs": [
        {
          "internalType": "string",
          "name": "",
          "type": "string"
        }
      ],
      "stateMutability": "view",
      "type": "function"
    },
    {
      "inputs": [],
      "name": "totalSupply",
      "outputs": [
        {
          "internalType": "uint256",
          "name": "",
          "type": "uint256"
        }
      ],
      "stateMutability": "view",
      "type": "function"
    },
    {
      "inputs": [
        {
          "internalType": "address",
          "name": "from",
          "type": "address"
        },
        {
          "internalType": "address",
          "name": "to",
          "type": "address"
        },
        {
          "internalType": "uint256",
          "name": "tokenId",
          "type": "uint256"
        }
      ],
      "name": "transferFrom",
      "outputs": [],
      "stateMutability": "nonpayable",
      "type": "function"
    },
    {
      "inputs": [
        {
          "internalType": "address",
          "name": "newOwner",
          "type": "address"
        }
      ],
      "name": "transferOwnership",
      "outputs": [],
      "stateMutability": "nonpayable",
      "type": "function"
    },
    {
      "inputs": [],
      "name": "withdrawPayments",
      "outputs": [],
      "stateMutability": "nonpayable",
      "type": "function"
    }
  ],
  "bytecode": "0x60806040523480156200001157600080fd5b506040518060400160405280600781526020017f4d616b654e4654000000000000000000000000000000000000000000000000008152506040518060400160405280600481526020017f4d4e46540000000000000000000000000000000000000000000000000000000081525081600090816200008f91906200043f565b508060019081620000a191906200043f565b505050620000c4620000b8620000e160201b60201c565b620000e960201b60201c565b620000db600c620001af60201b62000e1d1760201c565b62000526565b600033905090565b6000600b60009054906101000a900473ffffffffffffffffffffffffffffffffffffffff16905081600b60006101000a81548173ffffffffffffffffffffffffffffffffffffffff021916908373ffffffffffffffffffffffffffffffffffffffff1602179055508173ffffffffffffffffffffffffffffffffffffffff168173ffffffffffffffffffffffffffffffffffffffff167f8be0079c531659141344cd1fd0a4f28419497f9722a3daafe3b4186f6b6457e060405160405180910390a35050565b6001816000016000828254019250508190555050565b600081519050919050565b7f4e487b7100000000000000000000000000000000000000000000000000000000600052604160045260246000fd5b7f4e487b7100000000000000000000000000000000000000000000000000000000600052602260045260246000fd5b600060028204905060018216806200024757607f821691505b6020821081036200025d576200025c620001ff565b5b50919050565b60008190508160005260206000209050919050565b60006020601f8301049050919050565b600082821b905092915050565b600060088302620002c77fffffffffffffffffffffffffffffffffffffffffffffffffffffffffffffffff8262000288565b620002d3868362000288565b95508019841693508086168417925050509392505050565b6000819050919050565b6000819050919050565b6000620003206200031a6200031484620002eb565b620002f5565b620002eb565b9050919050565b6000819050919050565b6200033c83620002ff565b620003546200034b8262000327565b84845462000295565b825550505050565b600090565b6200036b6200035c565b6200037881848462000331565b505050565b5b81811015620003a0576200039460008262000361565b6001810190506200037e565b5050565b601f821115620003ef57620003b98162000263565b620003c48462000278565b81016020851015620003d4578190505b620003ec620003e38562000278565b8301826200037d565b50505b505050565b600082821c905092915050565b60006200041460001984600802620003f4565b1980831691505092915050565b60006200042f838362000401565b9150826002028217905092915050565b6200044a82620001c5565b67ffffffffffffffff811115620004665762000465620001d0565b5b6200047282546200022e565b6200047f828285620003a4565b600060209050601f831160018114620004b75760008415620004a2578287015190505b620004ae858262000421565b8655506200051e565b601f198416620004c78662000263565b60005b82811015620004f157848901518255600182019150602085019450602081019050620004ca565b868310156200051157848901516200050d601f89168262000401565b8355505b6001600288020188555050505b505050505050565b61394e80620005366000396000f3fe6080604052600436106101405760003560e01c80636352211e116100b6578063b88d4fde1161006f578063b88d4fde1461045c578063c002d23d14610485578063c87b56dd146104b0578063d204c45e146104ed578063e985e9c514610509578063f2fde38b1461054657610140565b80636352211e1461034c57806370a0823114610389578063715018a6146103c65780638da5cb5b146103dd57806395d89b4114610408578063a22cb4651461043357610140565b806323b872dd1161010857806323b872dd1461023e5780632f745c591461026757806332cb6b0c146102a457806342842e0e146102cf5780634f6ccce7146102f85780636103d70b1461033557610140565b806301ffc9a71461014557806306fdde0314610182578063081812fc146101ad578063095ea7b3146101ea57806318160ddd14610213575b600080fd5b34801561015157600080fd5b5061016c6004803603810190610167919061237e565b61056f565b60405161017991906123c6565b60405180910390f35b34801561018e57600080fd5b50610197610581565b6040516101a49190612471565b60405180910390f35b3480156101b957600080fd5b506101d460048036038101906101cf91906124c9565b610613565b6040516101e19190612537565b60405180910390f35b3480156101f657600080fd5b50610211600480360381019061020c919061257e565b610659565b005b34801561021f57600080fd5b50610228610770565b60405161023591906125cd565b60405180910390f35b34801561024a57600080fd5b50610265600480360381019061026091906125e8565b61077d565b005b34801561027357600080fd5b5061028e6004803603810190610289919061257e565b6107dd565b60405161029b91906125cd565b60405180910390f35b3480156102b057600080fd5b506102b9610882565b6040516102c691906125cd565b60405180910390f35b3480156102db57600080fd5b506102f660048036038101906102f191906125e8565b610889565b005b34801561030457600080fd5b5061031f600480360381019061031a91906124c9565b6108a9565b60405161032c91906125cd565b60405180910390f35b34801561034157600080fd5b5061034a61091a565b005b34801561035857600080fd5b50610373600480360381019061036e91906124c9565b610972565b6040516103809190612537565b60405180910390f35b34801561039557600080fd5b506103b060048036038101906103ab919061263b565b610a23565b6040516103bd91906125cd565b60405180910390f35b3480156103d257600080fd5b506103db610ada565b005b3480156103e957600080fd5b506103f2610aee565b6040516103ff9190612537565b60405180910390f35b34801561041457600080fd5b5061041d610b18565b60405161042a9190612471565b60405180910390f35b34801561043f57600080fd5b5061045a60048036038101906104559190612694565b610baa565b005b34801561046857600080fd5b50610483600480360381019061047e9190612809565b610bc0565b005b34801561049157600080fd5b5061049a610c22565b6040516104a791906125cd565b60405180910390f35b3480156104bc57600080fd5b506104d760048036038101906104d291906124c9565b610c2d565b6040516104e49190612471565b60405180910390f35b6105076004803603810190610502919061292d565b610c3f565b005b34801561051557600080fd5b50610530600480360381019061052b9190612989565b610d06565b60405161053d91906123c6565b60405180910390f35b34801561055257600080fd5b5061056d6004803603810190610568919061263b565b610d9a565b005b600061057a82610e33565b9050919050565b606060008054610590906129f8565b80601f01602080910402602001604051908101604052809291908181526020018280546105bc906129f8565b80156106095780601f106105de57610100808354040283529160200191610609565b820191906000526020600020905b8154815290600101906020018083116105ec57829003601f168201915b5050505050905090565b600061061e82610ead565b6004600083815260200190815260200160002060009054906101000a900473ffffffffffffffffffffffffffffffffffffffff169050919050565b600061066482610972565b90508073ffffffffffffffffffffffffffffffffffffffff168373ffffffffffffffffffffffffffffffffffffffff16036106d4576040517f08c379a00000000000000000000000000000000000000000000000000000000081526004016106cb90612a9b565b60405180910390fd5b8073ffffffffffffffffffffffffffffffffffffffff166106f3610ef8565b73ffffffffffffffffffffffffffffffffffffffff16148061072257506107218161071c610ef8565b610d06565b5b610761576040517f08c379a000000000000000000000000000000000000000000000000000000000815260040161075890612b2d565b60405180910390fd5b61076b8383610f00565b505050565b6000600880549050905090565b61078e610788610ef8565b82610fb9565b6107cd576040517f08c379a00000000000000000000000000000000000000000000000000000000081526004016107c490612bbf565b60405180910390fd5b6107d883838361104e565b505050565b60006107e883610a23565b8210610829576040517f08c379a000000000000000000000000000000000000000000000000000000000815260040161082090612c51565b60405180910390fd5b600660008473ffffffffffffffffffffffffffffffffffffffff1673ffffffffffffffffffffffffffffffffffffffff168152602001908152602001600020600083815260200190815260200160002054905092915050565b620f424081565b6108a483838360405180602001604052806000815250610bc0565b505050565b60006108b3610770565b82106108f4576040517f08c379a00000000000000000000000000000000000000000000000000000000081526004016108eb90612ce3565b60405180910390fd5b6008828154811061090857610907612d03565b5b90600052602060002001549050919050565b6109226112b4565b61092a610aee565b73ffffffffffffffffffffffffffffffffffffffff166108fc479081150290604051600060405180830381858888f1935050505015801561096f573d6000803e3d6000fd5b50565b6000806002600084815260200190815260200160002060009054906101000a900473ffffffffffffffffffffffffffffffffffffffff169050600073ffffffffffffffffffffffffffffffffffffffff168173ffffffffffffffffffffffffffffffffffffffff1603610a1a576040517f08c379a0000000000000000000000000000000000000000000000000000000008152600401610a1190612d7e565b60405180910390fd5b80915050919050565b60008073ffffffffffffffffffffffffffffffffffffffff168273ffffffffffffffffffffffffffffffffffffffff1603610a93576040517f08c379a0000000000000000000000000000000000000000000000000000000008152600401610a8a90612e10565b60405180910390fd5b600360008373ffffffffffffffffffffffffffffffffffffffff1673ffffffffffffffffffffffffffffffffffffffff168152602001908152602001600020549050919050565b610ae26112b4565b610aec6000611332565b565b6000600b60009054906101000a900473ffffffffffffffffffffffffffffffffffffffff16905090565b606060018054610b27906129f8565b80601f0160208091040260200160405190810160405280929190818152602001828054610b53906129f8565b8015610ba05780601f10610b7557610100808354040283529160200191610ba0565b820191906000526020600020905b815481529060010190602001808311610b8357829003601f168201915b5050505050905090565b610bbc610bb5610ef8565b83836113f8565b5050565b610bd1610bcb610ef8565b83610fb9565b610c10576040517f08c379a0000000000000000000000000000000000000000000000000000000008152600401610c0790612bbf565b60405180910390fd5b610c1c84848484611564565b50505050565b66038d7ea4c6800081565b6060610c38826115c0565b9050919050565b66038d7ea4c68000341015610c89576040517f08c379a0000000000000000000000000000000000000000000000000000000008152600401610c8090612ea2565b60405180910390fd5b620f4240610c95610770565b10610cd5576040517f08c379a0000000000000000000000000000000000000000000000000000000008152600401610ccc90612f0e565b60405180910390fd5b6000610ce1600c6116d2565b9050610ced83826116e0565b610cf781836116fe565b610d01600c610e1d565b505050565b6000600560008473ffffffffffffffffffffffffffffffffffffffff1673ffffffffffffffffffffffffffffffffffffffff16815260200190815260200160002060008373ffffffffffffffffffffffffffffffffffffffff1673ffffffffffffffffffffffffffffffffffffffff16815260200190815260200160002060009054906101000a900460ff16905092915050565b610da26112b4565b600073ffffffffffffffffffffffffffffffffffffffff168173ffffffffffffffffffffffffffffffffffffffff1603610e11576040517f08c379a0000000000000000000000000000000000000000000000000000000008152600401610e0890612fa0565b60405180910390fd5b610e1a81611332565b50565b6001816000016000828254019250508190555050565b60007f780e9d63000000000000000000000000000000000000000000000000000000007bffffffffffffffffffffffffffffffffffffffffffffffffffffffff1916827bffffffffffffffffffffffffffffffffffffffffffffffffffffffff19161480610ea65750610ea58261176b565b5b9050919050565b610eb68161184d565b610ef5576040517f08c379a0000000000000000000000000000000000000000000000000000000008152600401610eec90612d7e565b60405180910390fd5b50565b600033905090565b816004600083815260200190815260200160002060006101000a81548173ffffffffffffffffffffffffffffffffffffffff021916908373ffffffffffffffffffffffffffffffffffffffff160217905550808273ffffffffffffffffffffffffffffffffffffffff16610f7383610972565b73ffffffffffffffffffffffffffffffffffffffff167f8c5be1e5ebec7d5bd14f71427d1e84f3dd0314c0f7b2291e5b200ac8c7c3b92560405160405180910390a45050565b600080610fc583610972565b90508073ffffffffffffffffffffffffffffffffffffffff168473ffffffffffffffffffffffffffffffffffffffff16148061100757506110068185610d06565b5b8061104557508373ffffffffffffffffffffffffffffffffffffffff1661102d84610613565b73ffffffffffffffffffffffffffffffffffffffff16145b91505092915050565b8273ffffffffffffffffffffffffffffffffffffffff1661106e82610972565b73ffffffffffffffffffffffffffffffffffffffff16146110c4576040517f08c379a00000000000000000000000000000000000000000000000000000000081526004016110bb90613032565b60405180910390fd5b600073ffffffffffffffffffffffffffffffffffffffff168273ffffffffffffffffffffffffffffffffffffffff1603611133576040517f08c379a000000000000000000000000000000000000000000000000000000000815260040161112a906130c4565b60405180910390fd5b61113e8383836118b9565b611149600082610f00565b6001600360008573ffffffffffffffffffffffffffffffffffffffff1673ffffffffffffffffffffffffffffffffffffffff16815260200190815260200160002060008282546111999190613113565b925050819055506001600360008473ffffffffffffffffffffffffffffffffffffffff1673ffffffffffffffffffffffffffffffffffffffff16815260200190815260200160002060008282546111f09190613147565b92505081905550816002600083815260200190815260200160002060006101000a81548173ffffffffffffffffffffffffffffffffffffffff021916908373ffffffffffffffffffffffffffffffffffffffff160217905550808273ffffffffffffffffffffffffffffffffffffffff168473ffffffffffffffffffffffffffffffffffffffff167fddf252ad1be2c89b69c2b068fc378daa952ba7f163c4a11628f55a4df523b3ef60405160405180910390a46112af8383836118c9565b505050565b6112bc610ef8565b73ffffffffffffffffffffffffffffffffffffffff166112da610aee565b73ffffffffffffffffffffffffffffffffffffffff1614611330576040517f08c379a0000000000000000000000000000000000000000000000000000000008152600401611327906131c7565b60405180910390fd5b565b6000600b60009054906101000a900473ffffffffffffffffffffffffffffffffffffffff16905081600b60006101000a81548173ffffffffffffffffffffffffffffffffffffffff021916908373ffffffffffffffffffffffffffffffffffffffff1602179055508173ffffffffffffffffffffffffffffffffffffffff168173ffffffffffffffffffffffffffffffffffffffff167f8be0079c531659141344cd1fd0a4f28419497f9722a3daafe3b4186f6b6457e060405160405180910390a35050565b8173ffffffffffffffffffffffffffffffffffffffff168373ffffffffffffffffffffffffffffffffffffffff1603611466576040517f08c379a000000000000000000000000000000000000000000000000000000000815260040161145d90613233565b60405180910390fd5b80600560008573ffffffffffffffffffffffffffffffffffffffff1673ffffffffffffffffffffffffffffffffffffffff16815260200190815260200160002060008473ffffffffffffffffffffffffffffffffffffffff1673ffffffffffffffffffffffffffffffffffffffff16815260200190815260200160002060006101000a81548160ff0219169083151502179055508173ffffffffffffffffffffffffffffffffffffffff168373ffffffffffffffffffffffffffffffffffffffff167f17307eab39ab6107e8899845ad3d59bd9653f200f220920489ca2b5937696c318360405161155791906123c6565b60405180910390a3505050565b61156f84848461104e565b61157b848484846118ce565b6115ba576040517f08c379a00000000000000000000000000000000000000000000000000000000081526004016115b1906132c5565b60405180910390fd5b50505050565b60606115cb82610ead565b6000600a600084815260200190815260200160002080546115eb906129f8565b80601f0160208091040260200160405190810160405280929190818152602001828054611617906129f8565b80156116645780601f1061163957610100808354040283529160200191611664565b820191906000526020600020905b81548152906001019060200180831161164757829003601f168201915b505050505090506000611675611a55565b9050600081510361168a5781925050506116cd565b6000825111156116bf5780826040516020016116a7929190613321565b604051602081830303815290604052925050506116cd565b6116c884611a6c565b925050505b919050565b600081600001549050919050565b6116fa828260405180602001604052806000815250611ad4565b5050565b6117078261184d565b611746576040517f08c379a000000000000000000000000000000000000000000000000000000000815260040161173d906133b7565b60405180910390fd5b80600a600084815260200190815260200160002090816117669190613583565b505050565b60007f80ac58cd000000000000000000000000000000000000000000000000000000007bffffffffffffffffffffffffffffffffffffffffffffffffffffffff1916827bffffffffffffffffffffffffffffffffffffffffffffffffffffffff1916148061183657507f5b5e139f000000000000000000000000000000000000000000000000000000007bffffffffffffffffffffffffffffffffffffffffffffffffffffffff1916827bffffffffffffffffffffffffffffffffffffffffffffffffffffffff1916145b80611846575061184582611b2f565b5b9050919050565b60008073ffffffffffffffffffffffffffffffffffffffff166002600084815260200190815260200160002060009054906101000a900473ffffffffffffffffffffffffffffffffffffffff1673ffffffffffffffffffffffffffffffffffffffff1614159050919050565b6118c4838383611b99565b505050565b505050565b60006118ef8473ffffffffffffffffffffffffffffffffffffffff16611cab565b15611a48578373ffffffffffffffffffffffffffffffffffffffff1663150b7a02611918610ef8565b8786866040518563ffffffff1660e01b815260040161193a94939291906136aa565b6020604051808303816000875af192505050801561197657506040513d601f19601f82011682018060405250810190611973919061370b565b60015b6119f8573d80600081146119a6576040519150601f19603f3d011682016040523d82523d6000602084013e6119ab565b606091505b5060008151036119f0576040517f08c379a00000000000000000000000000000000000000000000000000000000081526004016119e7906132c5565b60405180910390fd5b805181602001fd5b63150b7a0260e01b7bffffffffffffffffffffffffffffffffffffffffffffffffffffffff1916817bffffffffffffffffffffffffffffffffffffffffffffffffffffffff191614915050611a4d565b600190505b949350505050565b606060405180602001604052806000815250905090565b6060611a7782610ead565b6000611a81611a55565b90506000815111611aa15760405180602001604052806000815250611acc565b80611aab84611cce565b604051602001611abc929190613321565b6040516020818303038152906040525b915050919050565b611ade8383611e2e565b611aeb60008484846118ce565b611b2a576040517f08c379a0000000000000000000000000000000000000000000000000000000008152600401611b21906132c5565b60405180910390fd5b505050565b60007f01ffc9a7000000000000000000000000000000000000000000000000000000007bffffffffffffffffffffffffffffffffffffffffffffffffffffffff1916827bffffffffffffffffffffffffffffffffffffffffffffffffffffffff1916149050919050565b611ba4838383612007565b600073ffffffffffffffffffffffffffffffffffffffff168373ffffffffffffffffffffffffffffffffffffffff1603611be657611be18161200c565b611c25565b8173ffffffffffffffffffffffffffffffffffffffff168373ffffffffffffffffffffffffffffffffffffffff1614611c2457611c238382612055565b5b5b600073ffffffffffffffffffffffffffffffffffffffff168273ffffffffffffffffffffffffffffffffffffffff1603611c6757611c62816121c2565b611ca6565b8273ffffffffffffffffffffffffffffffffffffffff168273ffffffffffffffffffffffffffffffffffffffff1614611ca557611ca48282612293565b5b5b505050565b6000808273ffffffffffffffffffffffffffffffffffffffff163b119050919050565b606060008203611d15576040518060400160405280600181526020017f30000000000000000000000000000000000000000000000000000000000000008152509050611e29565b600082905060005b60008214611d47578080611d3090613738565b915050600a82611d4091906137af565b9150611d1d565b60008167ffffffffffffffff811115611d6357611d626126de565b5b6040519080825280601f01601f191660200182016040528015611d955781602001600182028036833780820191505090505b5090505b60008514611e2257600182611dae9190613113565b9150600a85611dbd91906137e0565b6030611dc99190613147565b60f81b818381518110611ddf57611dde612d03565b5b60200101907effffffffffffffffffffffffffffffffffffffffffffffffffffffffffffff1916908160001a905350600a85611e1b91906137af565b9450611d99565b8093505050505b919050565b600073ffffffffffffffffffffffffffffffffffffffff168273ffffffffffffffffffffffffffffffffffffffff1603611e9d576040517f08c379a0000000000000000000000000000000000000000000000000000000008152600401611e949061385d565b60405180910390fd5b611ea68161184d565b15611ee6576040517f08c379a0000000000000000000000000000000000000000000000000000000008152600401611edd906138c9565b60405180910390fd5b611ef2600083836118b9565b6001600360008473ffffffffffffffffffffffffffffffffffffffff1673ffffffffffffffffffffffffffffffffffffffff1681526020019081526020016000206000828254611f429190613147565b92505081905550816002600083815260200190815260200160002060006101000a81548173ffffffffffffffffffffffffffffffffffffffff021916908373ffffffffffffffffffffffffffffffffffffffff160217905550808273ffffffffffffffffffffffffffffffffffffffff16600073ffffffffffffffffffffffffffffffffffffffff167fddf252ad1be2c89b69c2b068fc378daa952ba7f163c4a11628f55a4df523b3ef60405160405180910390a4612003600083836118c9565b5050565b505050565b6008805490506009600083815260200190815260200160002081905550600881908060018154018082558091505060019003906000526020600020016000909190919091505550565b6000600161206284610a23565b61206c9190613113565b9050600060076000848152602001908152602001600020549050818114612151576000600660008673ffffffffffffffffffffffffffffffffffffffff1673ffffffffffffffffffffffffffffffffffffffff168152602001908152602001600020600084815260200190815260200160002054905080600660008773ffffffffffffffffffffffffffffffffffffffff1673ffffffffffffffffffffffffffffffffffffffff168152602001908152602001600020600084815260200190815260200160002081905550816007600083815260200190815260200160002081905550505b6007600084815260200190815260200160002060009055600660008573ffffffffffffffffffffffffffffffffffffffff1673ffffffffffffffffffffffffffffffffffffffff16815260200190815260200160002060008381526020019081526020016000206000905550505050565b600060016008805490506121d69190613113565b905060006009600084815260200190815260200160002054905060006008838154811061220657612205612d03565b5b90600052602060002001549050806008838154811061222857612227612d03565b5b906000526020600020018190555081600960008381526020019081526020016000208190555060096000858152602001908152602001600020600090556008805480612277576122766138e9565b5b6001900381819060005260206000200160009055905550505050565b600061229e83610a23565b905081600660008573ffffffffffffffffffffffffffffffffffffffff1673ffffffffffffffffffffffffffffffffffffffff168152602001908152602001600020600083815260200190815260200160002081905550806007600084815260200190815260200160002081905550505050565b6000604051905090565b600080fd5b600080fd5b60007fffffffff0000000000000000000000000000000000000000000000000000000082169050919050565b61235b81612326565b811461236657600080fd5b50565b60008135905061237881612352565b92915050565b6000602082840312156123945761239361231c565b5b60006123a284828501612369565b91505092915050565b60008115159050919050565b6123c0816123ab565b82525050565b60006020820190506123db60008301846123b7565b92915050565b600081519050919050565b600082825260208201905092915050565b60005b8381101561241b578082015181840152602081019050612400565b60008484015250505050565b6000601f19601f8301169050919050565b6000612443826123e1565b61244d81856123ec565b935061245d8185602086016123fd565b61246681612427565b840191505092915050565b6000602082019050818103600083015261248b8184612438565b905092915050565b6000819050919050565b6124a681612493565b81146124b157600080fd5b50565b6000813590506124c38161249d565b92915050565b6000602082840312156124df576124de61231c565b5b60006124ed848285016124b4565b91505092915050565b600073ffffffffffffffffffffffffffffffffffffffff82169050919050565b6000612521826124f6565b9050919050565b61253181612516565b82525050565b600060208201905061254c6000830184612528565b92915050565b61255b81612516565b811461256657600080fd5b50565b60008135905061257881612552565b92915050565b600080604083850312156125955761259461231c565b5b60006125a385828601612569565b92505060206125b4858286016124b4565b9150509250929050565b6125c781612493565b82525050565b60006020820190506125e260008301846125be565b92915050565b6000806000606084860312156126015761260061231c565b5b600061260f86828701612569565b935050602061262086828701612569565b9250506040612631868287016124b4565b9150509250925092565b6000602082840312156126515761265061231c565b5b600061265f84828501612569565b91505092915050565b612671816123ab565b811461267c57600080fd5b50565b60008135905061268e81612668565b92915050565b600080604083850312156126ab576126aa61231c565b5b60006126b985828601612569565b92505060206126ca8582860161267f565b9150509250929050565b600080fd5b600080fd5b7f4e487b7100000000000000000000000000000000000000000000000000000000600052604160045260246000fd5b61271682612427565b810181811067ffffffffffffffff82111715612735576127346126de565b5b80604052505050565b6000612748612312565b9050612754828261270d565b919050565b600067ffffffffffffffff821115612774576127736126de565b5b61277d82612427565b9050602081019050919050565b82818337600083830152505050565b60006127ac6127a784612759565b61273e565b9050828152602081018484840111156127c8576127c76126d9565b5b6127d384828561278a565b509392505050565b600082601f8301126127f0576127ef6126d4565b5b8135612800848260208601612799565b91505092915050565b600080600080608085870312156128235761282261231c565b5b600061283187828801612569565b945050602061284287828801612569565b9350506040612853878288016124b4565b925050606085013567ffffffffffffffff81111561287457612873612321565b5b612880878288016127db565b91505092959194509250565b600067ffffffffffffffff8211156128a7576128a66126de565b5b6128b082612427565b9050602081019050919050565b60006128d06128cb8461288c565b61273e565b9050828152602081018484840111156128ec576128eb6126d9565b5b6128f784828561278a565b509392505050565b600082601f830112612914576129136126d4565b5b81356129248482602086016128bd565b91505092915050565b600080604083850312156129445761294361231c565b5b600061295285828601612569565b925050602083013567ffffffffffffffff81111561297357612972612321565b5b61297f858286016128ff565b9150509250929050565b600080604083850312156129a05761299f61231c565b5b60006129ae85828601612569565b92505060206129bf85828601612569565b9150509250929050565b7f4e487b7100000000000000000000000000000000000000000000000000000000600052602260045260246000fd5b60006002820490506001821680612a1057607f821691505b602082108103612a2357612a226129c9565b5b50919050565b7f4552433732313a20617070726f76616c20746f2063757272656e74206f776e6560008201527f7200000000000000000000000000000000000000000000000000000000000000602082015250565b6000612a856021836123ec565b9150612a9082612a29565b604082019050919050565b60006020820190508181036000830152612ab481612a78565b9050919050565b7f4552433732313a20617070726f76652063616c6c6572206973206e6f7420746f60008201527f6b656e206f776e6572206e6f7220617070726f76656420666f7220616c6c0000602082015250565b6000612b17603e836123ec565b9150612b2282612abb565b604082019050919050565b60006020820190508181036000830152612b4681612b0a565b9050919050565b7f4552433732313a2063616c6c6572206973206e6f7420746f6b656e206f776e6560008201527f72206e6f7220617070726f766564000000000000000000000000000000000000602082015250565b6000612ba9602e836123ec565b9150612bb482612b4d565b604082019050919050565b60006020820190508181036000830152612bd881612b9c565b9050919050565b7f455243373231456e756d657261626c653a206f776e657220696e646578206f7560008201527f74206f6620626f756e6473000000000000000000000000000000000000000000602082015250565b6000612c3b602b836123ec565b9150612c4682612bdf565b604082019050919050565b60006020820190508181036000830152612c6a81612c2e565b9050919050565b7f455243373231456e756d657261626c653a20676c6f62616c20696e646578206f60008201527f7574206f6620626f756e64730000000000000000000000000000000000000000602082015250565b6000612ccd602c836123ec565b9150612cd882612c71565b604082019050919050565b60006020820190508181036000830152612cfc81612cc0565b9050919050565b7f4e487b7100000000000000000000000000000000000000000000000000000000600052603260045260246000fd5b7f4552433732313a20696e76616c696420746f6b656e2049440000000000000000600082015250565b6000612d686018836123ec565b9150612d7382612d32565b602082019050919050565b60006020820190508181036000830152612d9781612d5b565b9050919050565b7f4552433732313a2061646472657373207a65726f206973206e6f74206120766160008201527f6c6964206f776e65720000000000000000000000000000000000000000000000602082015250565b6000612dfa6029836123ec565b9150612e0582612d9e565b604082019050919050565b60006020820190508181036000830152612e2981612ded565b9050919050565b7f5472616e73616374696f6e2076616c756520646964206e6f7420657175616c2060008201527f746865206d696e74207072696365210000000000000000000000000000000000602082015250565b6000612e8c602f836123ec565b9150612e9782612e30565b604082019050919050565b60006020820190508181036000830152612ebb81612e7f565b9050919050565b7f4d617820737570706c7920726561636865640000000000000000000000000000600082015250565b6000612ef86012836123ec565b9150612f0382612ec2565b602082019050919050565b60006020820190508181036000830152612f2781612eeb565b9050919050565b7f4f776e61626c653a206e6577206f776e657220697320746865207a65726f206160008201527f6464726573730000000000000000000000000000000000000000000000000000602082015250565b6000612f8a6026836123ec565b9150612f9582612f2e565b604082019050919050565b60006020820190508181036000830152612fb981612f7d565b9050919050565b7f4552433732313a207472616e736665722066726f6d20696e636f72726563742060008201527f6f776e6572000000000000000000000000000000000000000000000000000000602082015250565b600061301c6025836123ec565b915061302782612fc0565b604082019050919050565b6000602082019050818103600083015261304b8161300f565b9050919050565b7f4552433732313a207472616e7366657220746f20746865207a65726f2061646460008201527f7265737300000000000000000000000000000000000000000000000000000000602082015250565b60006130ae6024836123ec565b91506130b982613052565b604082019050919050565b600060208201905081810360008301526130dd816130a1565b9050919050565b7f4e487b7100000000000000000000000000000000000000000000000000000000600052601160045260246000fd5b600061311e82612493565b915061312983612493565b9250828203905081811115613141576131406130e4565b5b92915050565b600061315282612493565b915061315d83612493565b9250828201905080821115613175576131746130e4565b5b92915050565b7f4f776e61626c653a2063616c6c6572206973206e6f7420746865206f776e6572600082015250565b60006131b16020836123ec565b91506131bc8261317b565b602082019050919050565b600060208201905081810360008301526131e0816131a4565b9050919050565b7f4552433732313a20617070726f766520746f2063616c6c657200000000000000600082015250565b600061321d6019836123ec565b9150613228826131e7565b602082019050919050565b6000602082019050818103600083015261324c81613210565b9050919050565b7f4552433732313a207472616e7366657220746f206e6f6e20455243373231526560008201527f63656976657220696d706c656d656e7465720000000000000000000000000000602082015250565b60006132af6032836123ec565b91506132ba82613253565b604082019050919050565b600060208201905081810360008301526132de816132a2565b9050919050565b600081905092915050565b60006132fb826123e1565b61330581856132e5565b93506133158185602086016123fd565b80840191505092915050565b600061332d82856132f0565b915061333982846132f0565b91508190509392505050565b7f45524337323155524953746f726167653a2055524920736574206f66206e6f6e60008201527f6578697374656e7420746f6b656e000000000000000000000000000000000000602082015250565b60006133a1602e836123ec565b91506133ac82613345565b604082019050919050565b600060208201905081810360008301526133d081613394565b9050919050565b60008190508160005260206000209050919050565b60006020601f8301049050919050565b600082821b905092915050565b6000600883026134397fffffffffffffffffffffffffffffffffffffffffffffffffffffffffffffffff826133fc565b61344386836133fc565b95508019841693508086168417925050509392505050565b6000819050919050565b600061348061347b61347684612493565b61345b565b612493565b9050919050565b6000819050919050565b61349a83613465565b6134ae6134a682613487565b848454613409565b825550505050565b600090565b6134c36134b6565b6134ce818484613491565b505050565b5b818110156134f2576134e76000826134bb565b6001810190506134d4565b5050565b601f82111561353757613508816133d7565b613511846133ec565b81016020851015613520578190505b61353461352c856133ec565b8301826134d3565b50505b505050565b600082821c905092915050565b600061355a6000198460080261353c565b1980831691505092915050565b60006135738383613549565b9150826002028217905092915050565b61358c826123e1565b67ffffffffffffffff8111156135a5576135a46126de565b5b6135af82546129f8565b6135ba8282856134f6565b600060209050601f8311600181146135ed57600084156135db578287015190505b6135e58582613567565b86555061364d565b601f1984166135fb866133d7565b60005b82811015613623578489015182556001820191506020850194506020810190506135fe565b86831015613640578489015161363c601f891682613549565b8355505b6001600288020188555050505b505050505050565b600081519050919050565b600082825260208201905092915050565b600061367c82613655565b6136868185613660565b93506136968185602086016123fd565b61369f81612427565b840191505092915050565b60006080820190506136bf6000830187612528565b6136cc6020830186612528565b6136d960408301856125be565b81810360608301526136eb8184613671565b905095945050505050565b60008151905061370581612352565b92915050565b6000602082840312156137215761372061231c565b5b600061372f848285016136f6565b91505092915050565b600061374382612493565b91507fffffffffffffffffffffffffffffffffffffffffffffffffffffffffffffffff8203613775576137746130e4565b5b600182019050919050565b7f4e487b7100000000000000000000000000000000000000000000000000000000600052601260045260246000fd5b60006137ba82612493565b91506137c583612493565b9250826137d5576137d4613780565b5b828204905092915050565b60006137eb82612493565b91506137f683612493565b92508261380657613805613780565b5b828206905092915050565b7f4552433732313a206d696e7420746f20746865207a65726f2061646472657373600082015250565b60006138476020836123ec565b915061385282613811565b602082019050919050565b600060208201905081810360008301526138768161383a565b9050919050565b7f4552433732313a20746f6b656e20616c7265616479206d696e74656400000000600082015250565b60006138b3601c836123ec565b91506138be8261387d565b602082019050919050565b600060208201905081810360008301526138e2816138a6565b9050919050565b7f4e487b7100000000000000000000000000000000000000000000000000000000600052603160045260246000fdfea2646970667358221220ae797f68139c5f79773af9086c242a85ec1ec42c2dc7b773fc9c46b8fa34d2a164736f6c63430008110033",
  "linkReferences": {},
  "deployedLinkReferences": {}
}